{
  "contractName": "MobileDevTest",
  "abi": [
    {
      "constant": false,
      "inputs": [
        {
          "name": "_city",
          "type": "string"
        },
        {
          "name": "_neighborhood",
          "type": "string"
        },
        {
          "name": "_streetNo",
          "type": "uint256"
        },
        {
          "name": "_aptNo",
          "type": "uint256"
        },
        {
          "name": "_userID",
          "type": "bytes32"
        },
        {
          "name": "_name",
          "type": "string"
        },
        {
          "name": "_birth",
          "type": "uint256"
        }
      ],
      "name": "addPerson",
      "outputs": [],
      "payable": false,
      "stateMutability": "nonpayable",
      "type": "function"
    },
    {
      "constant": true,
      "inputs": [
        {
          "name": "_user",
          "type": "address"
        }
      ],
      "name": "getPersonByAddress",
      "outputs": [
        {
          "name": "",
          "type": "bytes32"
        },
        {
          "name": "",
          "type": "string"
        },
        {
          "name": "",
          "type": "uint256"
        },
        {
          "name": "",
          "type": "bool"
        }
      ],
      "payable": false,
      "stateMutability": "view",
      "type": "function"
    },
    {
      "constant": true,
      "inputs": [],
      "name": "getAddressOfUser",
      "outputs": [
        {
          "name": "",
          "type": "string"
        },
        {
          "name": "",
          "type": "string"
        },
        {
          "name": "",
          "type": "uint256"
        },
        {
          "name": "",
          "type": "uint256"
        }
      ],
      "payable": false,
      "stateMutability": "view",
      "type": "function"
    },
    {
      "constant": false,
      "inputs": [
        {
          "name": "_newName",
          "type": "string"
        }
      ],
      "name": "updatePersonName",
      "outputs": [],
      "payable": false,
      "stateMutability": "nonpayable",
      "type": "function"
    },
    {
      "constant": true,
      "inputs": [
        {
          "name": "user",
          "type": "address"
        }
      ],
      "name": "getBalanceOf",
      "outputs": [
        {
          "name": "",
          "type": "uint256"
        }
      ],
      "payable": false,
      "stateMutability": "view",
      "type": "function"
    },
    {
      "constant": false,
      "inputs": [],
      "name": "withdrawMoney",
      "outputs": [],
      "payable": false,
      "stateMutability": "nonpayable",
      "type": "function"
    },
    {
      "constant": false,
      "inputs": [],
      "name": "beExclusiveMember",
      "outputs": [],
      "payable": true,
      "stateMutability": "payable",
      "type": "function"
    },
    {
      "constant": false,
      "inputs": [
        {
          "name": "_to",
          "type": "address"
        }
      ],
      "name": "addNewRelation",
      "outputs": [],
      "payable": false,
      "stateMutability": "nonpayable",
      "type": "function"
    },
    {
      "constant": true,
      "inputs": [],
      "name": "getRelations",
      "outputs": [
        {
          "name": "",
          "type": "address[]"
        }
      ],
      "payable": false,
      "stateMutability": "view",
      "type": "function"
    }
  ],
  "bytecode": "0x608060405234801561001057600080fd5b506111d3806100206000396000f300608060405260043610610099576000357c0100000000000000000000000000000000000000000000000000000000900463ffffffff16806343210e781461009e57806351b98b051461017b578063568e0d761461028557806374d42ad11461031c5780639b96eece1461035f578063ac446002146103b6578063c2dc3e22146103cd578063cc51b4ea14610439578063e987e58a14610443575b600080fd5b3480156100aa57600080fd5b506100df600480360381019080803573ffffffffffffffffffffffffffffffffffffffff16906020019092919050505061047e565b6040518085600019166000191681526020018060200184815260200183151515158152602001828103825285818151815260200191508051906020019080838360005b8381101561013d578082015181840152602081019050610122565b50505050905090810190601f16801561016a5780820380516001836020036101000a031916815260200191505b509550505050505060405180910390f35b34801561018757600080fd5b50610190610801565b604051808060200180602001858152602001848152602001838103835287818151815260200191508051906020019080838360005b838110156101e05780820151818401526020810190506101c5565b50505050905090810190601f16801561020d5780820380516001836020036101000a031916815260200191505b50838103825286818151815260200191508051906020019080838360005b8381101561024657808201518184015260208101905061022b565b50505050905090810190601f1680156102735780820380516001836020036101000a031916815260200191505b50965050505050505060405180910390f35b34801561029157600080fd5b5061031a60048036038101908080359060200190820180359060200191909192939192939080359060200190820180359060200191909192939192939080359060200190929190803590602001909291908035600019169060200190929190803590602001908201803590602001919091929391929390803590602001909291905050506109df565b005b34801561032857600080fd5b5061035d600480360381019080803573ffffffffffffffffffffffffffffffffffffffff169060200190929190505050610bf4565b005b34801561036b57600080fd5b506103a0600480360381019080803573ffffffffffffffffffffffffffffffffffffffff169060200190929190505050610cfa565b6040518082815260200191505060405180910390f35b3480156103c257600080fd5b506103cb610d43565b005b3480156103d957600080fd5b506103e2610e16565b6040518080602001828103825283818151815260200191508051906020019060200280838360005b8381101561042557808201518184015260208101905061040a565b505050509050019250505060405180910390f35b610441610ee3565b005b34801561044f57600080fd5b5061047c600480360381019080803590602001908201803590602001919091929391929390505050610fa1565b005b6000606060008061048d610ff6565b6000808773ffffffffffffffffffffffffffffffffffffffff1673ffffffffffffffffffffffffffffffffffffffff16815260200190815260200160002060a06040519081016040529081600082015460001916600019168152602001600182018054600181600116156101000203166002900480601f0160208091040260200160405190810160405280929190818152602001828054600181600116156101000203166002900480156105825780601f1061055757610100808354040283529160200191610582565b820191906000526020600020905b81548152906001019060200180831161056557829003601f168201915b50505050508152602001600282015481526020016003820180548060200260200160405190810160405280929190818152602001828054801561061a57602002820191906000526020600020905b8160009054906101000a900473ffffffffffffffffffffffffffffffffffffffff1673ffffffffffffffffffffffffffffffffffffffff16815260200190600101908083116105d0575b505050505081526020016004820160806040519081016040529081600082018054600181600116156101000203166002900480601f0160208091040260200160405190810160405280929190818152602001828054600181600116156101000203166002900480156106cd5780601f106106a2576101008083540402835291602001916106cd565b820191906000526020600020905b8154815290600101906020018083116106b057829003601f168201915b50505050508152602001600182018054600181600116156101000203166002900480601f01602080910402602001604051908101604052809291908181526020018280546001816001161561010002031660029004801561076f5780601f106107445761010080835404028352916020019161076f565b820191906000526020600020905b81548152906001019060200180831161075257829003601f168201915b5050505050815260200160028201548152602001600382015481525050815250509050806000015181602001518260400151600360008a73ffffffffffffffffffffffffffffffffffffffff1673ffffffffffffffffffffffffffffffffffffffff16815260200190815260200160002060009054906101000a900460ff168292509450945094509450509193509193565b60608060008061080f611030565b6000803373ffffffffffffffffffffffffffffffffffffffff1673ffffffffffffffffffffffffffffffffffffffff16815260200190815260200160002060040160806040519081016040529081600082018054600181600116156101000203166002900480601f0160208091040260200160405190810160405280929190818152602001828054600181600116156101000203166002900480156108f55780601f106108ca576101008083540402835291602001916108f5565b820191906000526020600020905b8154815290600101906020018083116108d857829003601f168201915b50505050508152602001600182018054600181600116156101000203166002900480601f0160208091040260200160405190810160405280929190818152602001828054600181600116156101000203166002900480156109975780601f1061096c57610100808354040283529160200191610997565b820191906000526020600020905b81548152906001019060200180831161097a57829003601f168201915b50505050508152602001600282015481526020016003820154815250509050806000015181602001518260400151836060015183935082925094509450945094505090919293565b6109e7611030565b6000806000803373ffffffffffffffffffffffffffffffffffffffff1673ffffffffffffffffffffffffffffffffffffffff16815260200190815260200160002060020154141515610a3857600080fd5b6080604051908101604052808d8d8080601f01602080910402602001604051908101604052809392919081815260200183838082843782019150505050505081526020018b8b8080601f01602080910402602001604051908101604052809392919081815260200183838082843782019150505050505081526020018981526020018881525091506000803373ffffffffffffffffffffffffffffffffffffffff1673ffffffffffffffffffffffffffffffffffffffff1681526020019081526020016000209050858160000181600019169055508484826001019190610b20929190611059565b5082816002018190555081816004016000820151816000019080519060200190610b4b9291906110d9565b506020820151816001019080519060200190610b689291906110d9565b50604082015181600201556060820151816003015590505060013390806001815401808255809150509060018203906000526020600020016000909192909190916101000a81548173ffffffffffffffffffffffffffffffffffffffff021916908373ffffffffffffffffffffffffffffffffffffffff16021790555050505050505050505050505050565b6000600360003373ffffffffffffffffffffffffffffffffffffffff1673ffffffffffffffffffffffffffffffffffffffff16815260200190815260200160002060009054906101000a900460ff161515610c4e57600080fd5b6000803373ffffffffffffffffffffffffffffffffffffffff1673ffffffffffffffffffffffffffffffffffffffff1681526020019081526020016000209050806003018290806001815401808255809150509060018203906000526020600020016000909192909190916101000a81548173ffffffffffffffffffffffffffffffffffffffff021916908373ffffffffffffffffffffffffffffffffffffffff160217905550505050565b6000600260008373ffffffffffffffffffffffffffffffffffffffff1673ffffffffffffffffffffffffffffffffffffffff168152602001908152602001600020549050919050565b6000600260003373ffffffffffffffffffffffffffffffffffffffff1673ffffffffffffffffffffffffffffffffffffffff1681526020019081526020016000205490506000600260003373ffffffffffffffffffffffffffffffffffffffff1673ffffffffffffffffffffffffffffffffffffffff168152602001908152602001600020819055503373ffffffffffffffffffffffffffffffffffffffff166108fc829081150290604051600060405180830381858888f19350505050158015610e12573d6000803e3d6000fd5b5050565b60606000803373ffffffffffffffffffffffffffffffffffffffff1673ffffffffffffffffffffffffffffffffffffffff168152602001908152602001600020600301805480602002602001604051908101604052809291908181526020018280548015610ed957602002820191906000526020600020905b8160009054906101000a900473ffffffffffffffffffffffffffffffffffffffff1673ffffffffffffffffffffffffffffffffffffffff1681526020019060010190808311610e8f575b5050505050905090565b6706f05b59d3b200003410151515610efa57600080fd5b6001600360003373ffffffffffffffffffffffffffffffffffffffff1673ffffffffffffffffffffffffffffffffffffffff16815260200190815260200160002060006101000a81548160ff02191690831515021790555034600260003373ffffffffffffffffffffffffffffffffffffffff1673ffffffffffffffffffffffffffffffffffffffff16815260200190815260200160002060008282540192505081905550565b81816000803373ffffffffffffffffffffffffffffffffffffffff1673ffffffffffffffffffffffffffffffffffffffff1681526020019081526020016000206001019190610ff1929190611059565b505050565b610100604051908101604052806000801916815260200160608152602001600081526020016060815260200161102a611159565b81525090565b608060405190810160405280606081526020016060815260200160008152602001600081525090565b828054600181600116156101000203166002900490600052602060002090601f016020900481019282601f1061109a57803560ff19168380011785556110c8565b828001600101855582156110c8579182015b828111156110c75782358255916020019190600101906110ac565b5b5090506110d59190611182565b5090565b828054600181600116156101000203166002900490600052602060002090601f016020900481019282601f1061111a57805160ff1916838001178555611148565b82800160010185558215611148579182015b8281111561114757825182559160200191906001019061112c565b5b5090506111559190611182565b5090565b608060405190810160405280606081526020016060815260200160008152602001600081525090565b6111a491905b808211156111a0576000816000905550600101611188565b5090565b905600a165627a7a72305820bfb010c28f20836ae2dc357498e5568394d75bc5bc8f9fc21a6044144fd1f7ae0029",
  "source": "pragma solidity ^0.4.24;\n\ncontract MobileDevTest {\n    \n    struct AddressData{\n        string city;\n        string neighborhood;\n        uint streetNo;\n        uint aptNo;\n    }\n    \n    struct Person{\n        bytes32 userID;\n        string name;\n        uint birth;\n        address[] relations;\n        AddressData accAddress;\n        \n    }\n    \n    modifier hasEnoughMoney(){\n        require(msg.value>=0.5 ether);\n        _;\n    }\n    \n    modifier isExclusiveMember(){\n        require(exclusiveMembers[msg.sender]);\n        _;\n    }\n    \n    mapping (address => Person) mapPeople;\n    address[] arrPeopleAddr;\n    \n    mapping(address => uint) ethBalances;\n    \n    mapping (address => bool) exclusiveMembers;\n    \n    /*\n    \"Istanbul\", \"Kadikoy\", 32, 2, \"0xf45055786089633ffbfc4e2d20f81e03df23e9bca22a393ff8931dadcef409fa\", \"Chucky\", 1534411595\n    */\n    function addPerson(string _city, string _neighborhood, uint _streetNo, uint _aptNo,\n                        bytes32 _userID, string _name, uint _birth) external {\n        require(mapPeople[msg.sender].birth==0);\n        AddressData memory tempAddr = AddressData(_city,_neighborhood,_streetNo,_aptNo);\n        Person storage person = mapPeople[msg.sender];\n        person.userID = _userID;\n        person.name= _name;\n        person.birth=_birth;\n        person.accAddress=tempAddr;\n        \n        arrPeopleAddr.push(msg.sender);\n    }\n    \n    /*\n        0x1337c3f3a39ba23228ec31036c5954ab6b9e9885\n    */\n    \n    function getPersonByAddress(address _user) external view returns(bytes32,string,uint,bool){\n        Person memory person = mapPeople[_user];\n        return (person.userID, person.name, person.birth, exclusiveMembers[_user]);   \n    }\n    \n\n    /*\n        Returns address of msg.sender\n    */\n    function getAddressOfUser() external view returns(string,string,uint,uint) {\n        AddressData memory currAddr = mapPeople[msg.sender].accAddress;\n        return (currAddr.city, currAddr.neighborhood, currAddr.streetNo, currAddr.aptNo);\n    }\n    \n    /*\n        \"Megaman\"\n    */\n    function updatePersonName(string _newName) external {\n        mapPeople[msg.sender].name = _newName;\n    }\n    \n    /*\n        Returns balance of user\n    */\n    function getBalanceOf(address user)external view returns(uint){\n        return ethBalances[user];\n    }\n    \n    /*\n        Refunds to exclusive members\n    */\n    function withdrawMoney() public{\n        uint amount = ethBalances[msg.sender];\n        ethBalances[msg.sender] = 0;\n        msg.sender.transfer(amount);\n    }\n    \n    /*\n        Send at least 0.5 ether to become Exclusive Member\n    */\n    function beExclusiveMember() external payable hasEnoughMoney {\n        exclusiveMembers[msg.sender]=true;\n        ethBalances[msg.sender]+=msg.value;\n    }\n    \n    /*\n        Only Exclusive members can add relations \n    */\n    function addNewRelation(address _to) external isExclusiveMember{\n        Person storage exMember = mapPeople[msg.sender];\n        exMember.relations.push(_to);\n    }\n    \n    /*\n        Returns relations of msg.sender\n    */\n    function getRelations() external view returns(address[]){\n        return mapPeople[msg.sender].relations;\n    }\n    \n    \n\n}",
  "sourcePath": "/home/narya/Desktop/Colendi/SampleContract/contracts/MobileDevTest.sol",
  "compiler": {
    "name": "solc",
    "version": "0.4.24+commit.e67f0147.Emscripten.clang"
  },
  "schemaVersion": "2.0.0",
  "updatedAt": "2018-08-16T11:38:40.009Z"
}